{
  "_format": "hh-sol-artifact-1",
  "contractName": "MyNFT",
  "sourceName": "contracts/ERC721.sol",
  "abi": [
    {
      "inputs": [],
      "stateMutability": "nonpayable",
      "type": "constructor"
    },
    {
      "anonymous": false,
      "inputs": [
        {
          "indexed": true,
          "internalType": "address",
          "name": "owner",
          "type": "address"
        },
        {
          "indexed": true,
          "internalType": "address",
          "name": "approved",
          "type": "address"
        },
        {
          "indexed": true,
          "internalType": "uint256",
          "name": "tokenId",
          "type": "uint256"
        }
      ],
      "name": "Approval",
      "type": "event"
    },
    {
      "anonymous": false,
      "inputs": [
        {
          "indexed": true,
          "internalType": "address",
          "name": "owner",
          "type": "address"
        },
        {
          "indexed": true,
          "internalType": "address",
          "name": "operator",
          "type": "address"
        },
        {
          "indexed": false,
          "internalType": "bool",
          "name": "approved",
          "type": "bool"
        }
      ],
      "name": "ApprovalForAll",
      "type": "event"
    },
    {
      "anonymous": false,
      "inputs": [
        {
          "indexed": true,
          "internalType": "bytes32",
          "name": "role",
          "type": "bytes32"
        },
        {
          "indexed": true,
          "internalType": "bytes32",
          "name": "previousAdminRole",
          "type": "bytes32"
        },
        {
          "indexed": true,
          "internalType": "bytes32",
          "name": "newAdminRole",
          "type": "bytes32"
        }
      ],
      "name": "RoleAdminChanged",
      "type": "event"
    },
    {
      "anonymous": false,
      "inputs": [
        {
          "indexed": true,
          "internalType": "bytes32",
          "name": "role",
          "type": "bytes32"
        },
        {
          "indexed": true,
          "internalType": "address",
          "name": "account",
          "type": "address"
        },
        {
          "indexed": true,
          "internalType": "address",
          "name": "sender",
          "type": "address"
        }
      ],
      "name": "RoleGranted",
      "type": "event"
    },
    {
      "anonymous": false,
      "inputs": [
        {
          "indexed": true,
          "internalType": "bytes32",
          "name": "role",
          "type": "bytes32"
        },
        {
          "indexed": true,
          "internalType": "address",
          "name": "account",
          "type": "address"
        },
        {
          "indexed": true,
          "internalType": "address",
          "name": "sender",
          "type": "address"
        }
      ],
      "name": "RoleRevoked",
      "type": "event"
    },
    {
      "anonymous": false,
      "inputs": [
        {
          "indexed": true,
          "internalType": "address",
          "name": "from",
          "type": "address"
        },
        {
          "indexed": true,
          "internalType": "address",
          "name": "to",
          "type": "address"
        },
        {
          "indexed": true,
          "internalType": "uint256",
          "name": "tokenId",
          "type": "uint256"
        }
      ],
      "name": "Transfer",
      "type": "event"
    },
    {
      "inputs": [],
      "name": "DEFAULT_ADMIN_ROLE",
      "outputs": [
        {
          "internalType": "bytes32",
          "name": "",
          "type": "bytes32"
        }
      ],
      "stateMutability": "view",
      "type": "function"
    },
    {
      "inputs": [],
      "name": "MINTER_ROLE",
      "outputs": [
        {
          "internalType": "bytes32",
          "name": "",
          "type": "bytes32"
        }
      ],
      "stateMutability": "view",
      "type": "function"
    },
    {
      "inputs": [
        {
          "internalType": "address",
          "name": "to",
          "type": "address"
        },
        {
          "internalType": "uint256",
          "name": "tokenId",
          "type": "uint256"
        }
      ],
      "name": "approve",
      "outputs": [],
      "stateMutability": "nonpayable",
      "type": "function"
    },
    {
      "inputs": [
        {
          "internalType": "address",
          "name": "owner",
          "type": "address"
        }
      ],
      "name": "balanceOf",
      "outputs": [
        {
          "internalType": "uint256",
          "name": "",
          "type": "uint256"
        }
      ],
      "stateMutability": "view",
      "type": "function"
    },
    {
      "inputs": [
        {
          "internalType": "uint256",
          "name": "tokenId",
          "type": "uint256"
        }
      ],
      "name": "burn",
      "outputs": [],
      "stateMutability": "nonpayable",
      "type": "function"
    },
    {
      "inputs": [
        {
          "internalType": "uint256",
          "name": "tokenId",
          "type": "uint256"
        }
      ],
      "name": "getApproved",
      "outputs": [
        {
          "internalType": "address",
          "name": "",
          "type": "address"
        }
      ],
      "stateMutability": "view",
      "type": "function"
    },
    {
      "inputs": [
        {
          "internalType": "bytes32",
          "name": "role",
          "type": "bytes32"
        }
      ],
      "name": "getRoleAdmin",
      "outputs": [
        {
          "internalType": "bytes32",
          "name": "",
          "type": "bytes32"
        }
      ],
      "stateMutability": "view",
      "type": "function"
    },
    {
      "inputs": [
        {
          "internalType": "bytes32",
          "name": "role",
          "type": "bytes32"
        },
        {
          "internalType": "address",
          "name": "account",
          "type": "address"
        }
      ],
      "name": "grantRole",
      "outputs": [],
      "stateMutability": "nonpayable",
      "type": "function"
    },
    {
      "inputs": [
        {
          "internalType": "bytes32",
          "name": "role",
          "type": "bytes32"
        },
        {
          "internalType": "address",
          "name": "account",
          "type": "address"
        }
      ],
      "name": "hasRole",
      "outputs": [
        {
          "internalType": "bool",
          "name": "",
          "type": "bool"
        }
      ],
      "stateMutability": "view",
      "type": "function"
    },
    {
      "inputs": [
        {
          "internalType": "address",
          "name": "owner",
          "type": "address"
        },
        {
          "internalType": "address",
          "name": "operator",
          "type": "address"
        }
      ],
      "name": "isApprovedForAll",
      "outputs": [
        {
          "internalType": "bool",
          "name": "",
          "type": "bool"
        }
      ],
      "stateMutability": "view",
      "type": "function"
    },
    {
      "inputs": [],
      "name": "name",
      "outputs": [
        {
          "internalType": "string",
          "name": "",
          "type": "string"
        }
      ],
      "stateMutability": "view",
      "type": "function"
    },
    {
      "inputs": [
        {
          "internalType": "uint256",
          "name": "tokenId",
          "type": "uint256"
        }
      ],
      "name": "ownerOf",
      "outputs": [
        {
          "internalType": "address",
          "name": "",
          "type": "address"
        }
      ],
      "stateMutability": "view",
      "type": "function"
    },
    {
      "inputs": [
        {
          "internalType": "bytes32",
          "name": "role",
          "type": "bytes32"
        },
        {
          "internalType": "address",
          "name": "account",
          "type": "address"
        }
      ],
      "name": "renounceRole",
      "outputs": [],
      "stateMutability": "nonpayable",
      "type": "function"
    },
    {
      "inputs": [
        {
          "internalType": "bytes32",
          "name": "role",
          "type": "bytes32"
        },
        {
          "internalType": "address",
          "name": "account",
          "type": "address"
        }
      ],
      "name": "revokeRole",
      "outputs": [],
      "stateMutability": "nonpayable",
      "type": "function"
    },
    {
      "inputs": [
        {
          "internalType": "address",
          "name": "_to",
          "type": "address"
        }
      ],
      "name": "safeMint",
      "outputs": [],
      "stateMutability": "nonpayable",
      "type": "function"
    },
    {
      "inputs": [
        {
          "internalType": "address",
          "name": "from",
          "type": "address"
        },
        {
          "internalType": "address",
          "name": "to",
          "type": "address"
        },
        {
          "internalType": "uint256",
          "name": "tokenId",
          "type": "uint256"
        }
      ],
      "name": "safeTransferFrom",
      "outputs": [],
      "stateMutability": "nonpayable",
      "type": "function"
    },
    {
      "inputs": [
        {
          "internalType": "address",
          "name": "from",
          "type": "address"
        },
        {
          "internalType": "address",
          "name": "to",
          "type": "address"
        },
        {
          "internalType": "uint256",
          "name": "tokenId",
          "type": "uint256"
        },
        {
          "internalType": "bytes",
          "name": "_data",
          "type": "bytes"
        }
      ],
      "name": "safeTransferFrom",
      "outputs": [],
      "stateMutability": "nonpayable",
      "type": "function"
    },
    {
      "inputs": [
        {
          "internalType": "address",
          "name": "operator",
          "type": "address"
        },
        {
          "internalType": "bool",
          "name": "approved",
          "type": "bool"
        }
      ],
      "name": "setApprovalForAll",
      "outputs": [],
      "stateMutability": "nonpayable",
      "type": "function"
    },
    {
      "inputs": [
        {
          "internalType": "bytes4",
          "name": "interfaceId",
          "type": "bytes4"
        }
      ],
      "name": "supportsInterface",
      "outputs": [
        {
          "internalType": "bool",
          "name": "",
          "type": "bool"
        }
      ],
      "stateMutability": "view",
      "type": "function"
    },
    {
      "inputs": [],
      "name": "symbol",
      "outputs": [
        {
          "internalType": "string",
          "name": "",
          "type": "string"
        }
      ],
      "stateMutability": "view",
      "type": "function"
    },
    {
      "inputs": [
        {
          "internalType": "uint256",
          "name": "tokenId",
          "type": "uint256"
        }
      ],
      "name": "tokenURI",
      "outputs": [
        {
          "internalType": "string",
          "name": "",
          "type": "string"
        }
      ],
      "stateMutability": "view",
      "type": "function"
    },
    {
      "inputs": [
        {
          "internalType": "address",
          "name": "from",
          "type": "address"
        },
        {
          "internalType": "address",
          "name": "to",
          "type": "address"
        },
        {
          "internalType": "uint256",
          "name": "tokenId",
          "type": "uint256"
        }
      ],
      "name": "transferFrom",
      "outputs": [],
      "stateMutability": "nonpayable",
      "type": "function"
    }
  ],
  "bytecode": "0x60806040523480156200001157600080fd5b506040518060400160405280600781526020017f4d79546f6b656e000000000000000000000000000000000000000000000000008152506040518060400160405280600381526020017f4d544b00000000000000000000000000000000000000000000000000000000008152508160009080519060200190620000969291906200026c565b508060019080519060200190620000af9291906200026c565b505050620000c76000801b336200010760201b60201c565b620000f97f9f2df0fed2c77648de5860a4cc508cd0818c85b8b8a1ab4ceeef8d981c8956a6336200010760201b60201c565b600060078190555062000381565b620001198282620001f960201b60201c565b620001f55760016006600084815260200190815260200160002060000160008373ffffffffffffffffffffffffffffffffffffffff1673ffffffffffffffffffffffffffffffffffffffff16815260200190815260200160002060006101000a81548160ff0219169083151502179055506200019a6200026460201b60201c565b73ffffffffffffffffffffffffffffffffffffffff168173ffffffffffffffffffffffffffffffffffffffff16837f2f8788117e7eff1d82e926ec794901d17c78024a50270940304540a733656f0d60405160405180910390a45b5050565b60006006600084815260200190815260200160002060000160008373ffffffffffffffffffffffffffffffffffffffff1673ffffffffffffffffffffffffffffffffffffffff16815260200190815260200160002060009054906101000a900460ff16905092915050565b600033905090565b8280546200027a906200031c565b90600052602060002090601f0160209004810192826200029e5760008555620002ea565b82601f10620002b957805160ff1916838001178555620002ea565b82800160010185558215620002ea579182015b82811115620002e9578251825591602001919060010190620002cc565b5b509050620002f99190620002fd565b5090565b5b8082111562000318576000816000905550600101620002fe565b5090565b600060028204905060018216806200033557607f821691505b602082108114156200034c576200034b62000352565b5b50919050565b7f4e487b7100000000000000000000000000000000000000000000000000000000600052602260045260246000fd5b6135a280620003916000396000f3fe608060405234801561001057600080fd5b50600436106101425760003560e01c80636352211e116100b8578063a22cb4651161007c578063a22cb46514610385578063b88d4fde146103a1578063c87b56dd146103bd578063d5391393146103ed578063d547741f1461040b578063e985e9c51461042757610142565b80636352211e146102b957806370a08231146102e957806391d148541461031957806395d89b4114610349578063a217fddf1461036757610142565b8063248a9ca31161010a578063248a9ca3146101fd5780632f2ff15d1461022d57806336568abe1461024957806340d097c31461026557806342842e0e1461028157806342966c681461029d57610142565b806301ffc9a71461014757806306fdde0314610177578063081812fc14610195578063095ea7b3146101c557806323b872dd146101e1575b600080fd5b610161600480360381019061015c9190612473565b610457565b60405161016e919061292b565b60405180910390f35b61017f610469565b60405161018c9190612961565b60405180910390f35b6101af60048036038101906101aa91906124c5565b6104fb565b6040516101bc91906128c4565b60405180910390f35b6101df60048036038101906101da91906123d2565b610580565b005b6101fb60048036038101906101f691906122cc565b610698565b005b6102176004803603810190610212919061240e565b6106f8565b6040516102249190612946565b60405180910390f35b61024760048036038101906102429190612437565b610718565b005b610263600480360381019061025e9190612437565b610741565b005b61027f600480360381019061027a9190612267565b6107c4565b005b61029b600480360381019061029691906122cc565b61081e565b005b6102b760048036038101906102b291906124c5565b61083e565b005b6102d360048036038101906102ce91906124c5565b61089a565b6040516102e091906128c4565b60405180910390f35b61030360048036038101906102fe9190612267565b61094c565b6040516103109190612ba3565b60405180910390f35b610333600480360381019061032e9190612437565b610a04565b604051610340919061292b565b60405180910390f35b610351610a6f565b60405161035e9190612961565b60405180910390f35b61036f610b01565b60405161037c9190612946565b60405180910390f35b61039f600480360381019061039a9190612396565b610b08565b005b6103bb60048036038101906103b6919061231b565b610b1e565b005b6103d760048036038101906103d291906124c5565b610b80565b6040516103e49190612961565b60405180910390f35b6103f5610c27565b6040516104029190612946565b60405180910390f35b61042560048036038101906104209190612437565b610c4b565b005b610441600480360381019061043c9190612290565b610c74565b60405161044e919061292b565b60405180910390f35b600061046282610d08565b9050919050565b60606000805461047890612e56565b80601f01602080910402602001604051908101604052809291908181526020018280546104a490612e56565b80156104f15780601f106104c6576101008083540402835291602001916104f1565b820191906000526020600020905b8154815290600101906020018083116104d457829003601f168201915b5050505050905090565b600061050682610d82565b610545576040517f08c379a000000000000000000000000000000000000000000000000000000000815260040161053c90612ae3565b60405180910390fd5b6004600083815260200190815260200160002060009054906101000a900473ffffffffffffffffffffffffffffffffffffffff169050919050565b600061058b8261089a565b90508073ffffffffffffffffffffffffffffffffffffffff168373ffffffffffffffffffffffffffffffffffffffff1614156105fc576040517f08c379a00000000000000000000000000000000000000000000000000000000081526004016105f390612b23565b60405180910390fd5b8073ffffffffffffffffffffffffffffffffffffffff1661061b610dee565b73ffffffffffffffffffffffffffffffffffffffff16148061064a575061064981610644610dee565b610c74565b5b610689576040517f08c379a000000000000000000000000000000000000000000000000000000000815260040161068090612a63565b60405180910390fd5b6106938383610df6565b505050565b6106a96106a3610dee565b82610eaf565b6106e8576040517f08c379a00000000000000000000000000000000000000000000000000000000081526004016106df90612b43565b60405180910390fd5b6106f3838383610f8d565b505050565b600060066000838152602001908152602001600020600101549050919050565b610721826106f8565b6107328161072d610dee565b6111f4565b61073c8383611291565b505050565b610749610dee565b73ffffffffffffffffffffffffffffffffffffffff168173ffffffffffffffffffffffffffffffffffffffff16146107b6576040517f08c379a00000000000000000000000000000000000000000000000000000000081526004016107ad90612b83565b60405180910390fd5b6107c08282611372565b5050565b7f9f2df0fed2c77648de5860a4cc508cd0818c85b8b8a1ab4ceeef8d981c8956a66107f6816107f1610dee565b6111f4565b61080282600754611454565b6007600081548092919061081590612eb9565b91905055505050565b61083983838360405180602001604052806000815250610b1e565b505050565b61084f610849610dee565b82610eaf565b61088e576040517f08c379a000000000000000000000000000000000000000000000000000000000815260040161088590612b63565b60405180910390fd5b61089781611472565b50565b6000806002600084815260200190815260200160002060009054906101000a900473ffffffffffffffffffffffffffffffffffffffff169050600073ffffffffffffffffffffffffffffffffffffffff168173ffffffffffffffffffffffffffffffffffffffff161415610943576040517f08c379a000000000000000000000000000000000000000000000000000000000815260040161093a90612aa3565b60405180910390fd5b80915050919050565b60008073ffffffffffffffffffffffffffffffffffffffff168273ffffffffffffffffffffffffffffffffffffffff1614156109bd576040517f08c379a00000000000000000000000000000000000000000000000000000000081526004016109b490612a83565b60405180910390fd5b600360008373ffffffffffffffffffffffffffffffffffffffff1673ffffffffffffffffffffffffffffffffffffffff168152602001908152602001600020549050919050565b60006006600084815260200190815260200160002060000160008373ffffffffffffffffffffffffffffffffffffffff1673ffffffffffffffffffffffffffffffffffffffff16815260200190815260200160002060009054906101000a900460ff16905092915050565b606060018054610a7e90612e56565b80601f0160208091040260200160405190810160405280929190818152602001828054610aaa90612e56565b8015610af75780601f10610acc57610100808354040283529160200191610af7565b820191906000526020600020905b815481529060010190602001808311610ada57829003601f168201915b5050505050905090565b6000801b81565b610b1a610b13610dee565b838361158f565b5050565b610b2f610b29610dee565b83610eaf565b610b6e576040517f08c379a0000000000000000000000000000000000000000000000000000000008152600401610b6590612b43565b60405180910390fd5b610b7a848484846116fc565b50505050565b6060610b8b82610d82565b610bca576040517f08c379a0000000000000000000000000000000000000000000000000000000008152600401610bc190612b03565b60405180910390fd5b6000610bd4611758565b90506000815111610bf45760405180602001604052806000815250610c1f565b80610bfe84611795565b604051602001610c0f929190612866565b6040516020818303038152906040525b915050919050565b7f9f2df0fed2c77648de5860a4cc508cd0818c85b8b8a1ab4ceeef8d981c8956a681565b610c54826106f8565b610c6581610c60610dee565b6111f4565b610c6f8383611372565b505050565b6000600560008473ffffffffffffffffffffffffffffffffffffffff1673ffffffffffffffffffffffffffffffffffffffff16815260200190815260200160002060008373ffffffffffffffffffffffffffffffffffffffff1673ffffffffffffffffffffffffffffffffffffffff16815260200190815260200160002060009054906101000a900460ff16905092915050565b60007f7965db0b000000000000000000000000000000000000000000000000000000007bffffffffffffffffffffffffffffffffffffffffffffffffffffffff1916827bffffffffffffffffffffffffffffffffffffffffffffffffffffffff19161480610d7b5750610d7a82611942565b5b9050919050565b60008073ffffffffffffffffffffffffffffffffffffffff166002600084815260200190815260200160002060009054906101000a900473ffffffffffffffffffffffffffffffffffffffff1673ffffffffffffffffffffffffffffffffffffffff1614159050919050565b600033905090565b816004600083815260200190815260200160002060006101000a81548173ffffffffffffffffffffffffffffffffffffffff021916908373ffffffffffffffffffffffffffffffffffffffff160217905550808273ffffffffffffffffffffffffffffffffffffffff16610e698361089a565b73ffffffffffffffffffffffffffffffffffffffff167f8c5be1e5ebec7d5bd14f71427d1e84f3dd0314c0f7b2291e5b200ac8c7c3b92560405160405180910390a45050565b6000610eba82610d82565b610ef9576040517f08c379a0000000000000000000000000000000000000000000000000000000008152600401610ef090612a43565b60405180910390fd5b6000610f048361089a565b90508073ffffffffffffffffffffffffffffffffffffffff168473ffffffffffffffffffffffffffffffffffffffff161480610f7357508373ffffffffffffffffffffffffffffffffffffffff16610f5b846104fb565b73ffffffffffffffffffffffffffffffffffffffff16145b80610f845750610f838185610c74565b5b91505092915050565b8273ffffffffffffffffffffffffffffffffffffffff16610fad8261089a565b73ffffffffffffffffffffffffffffffffffffffff1614611003576040517f08c379a0000000000000000000000000000000000000000000000000000000008152600401610ffa906129c3565b60405180910390fd5b600073ffffffffffffffffffffffffffffffffffffffff168273ffffffffffffffffffffffffffffffffffffffff161415611073576040517f08c379a000000000000000000000000000000000000000000000000000000000815260040161106a90612a03565b60405180910390fd5b61107e838383611a24565b611089600082610df6565b6001600360008573ffffffffffffffffffffffffffffffffffffffff1673ffffffffffffffffffffffffffffffffffffffff16815260200190815260200160002060008282546110d99190612d38565b925050819055506001600360008473ffffffffffffffffffffffffffffffffffffffff1673ffffffffffffffffffffffffffffffffffffffff16815260200190815260200160002060008282546111309190612c57565b92505081905550816002600083815260200190815260200160002060006101000a81548173ffffffffffffffffffffffffffffffffffffffff021916908373ffffffffffffffffffffffffffffffffffffffff160217905550808273ffffffffffffffffffffffffffffffffffffffff168473ffffffffffffffffffffffffffffffffffffffff167fddf252ad1be2c89b69c2b068fc378daa952ba7f163c4a11628f55a4df523b3ef60405160405180910390a46111ef838383611a29565b505050565b6111fe8282610a04565b61128d576112238173ffffffffffffffffffffffffffffffffffffffff166014611a2e565b6112318360001c6020611a2e565b60405160200161124292919061288a565b6040516020818303038152906040526040517f08c379a00000000000000000000000000000000000000000000000000000000081526004016112849190612961565b60405180910390fd5b5050565b61129b8282610a04565b61136e5760016006600084815260200190815260200160002060000160008373ffffffffffffffffffffffffffffffffffffffff1673ffffffffffffffffffffffffffffffffffffffff16815260200190815260200160002060006101000a81548160ff021916908315150217905550611313610dee565b73ffffffffffffffffffffffffffffffffffffffff168173ffffffffffffffffffffffffffffffffffffffff16837f2f8788117e7eff1d82e926ec794901d17c78024a50270940304540a733656f0d60405160405180910390a45b5050565b61137c8282610a04565b156114505760006006600084815260200190815260200160002060000160008373ffffffffffffffffffffffffffffffffffffffff1673ffffffffffffffffffffffffffffffffffffffff16815260200190815260200160002060006101000a81548160ff0219169083151502179055506113f5610dee565b73ffffffffffffffffffffffffffffffffffffffff168173ffffffffffffffffffffffffffffffffffffffff16837ff6391f5c32d9c69d2a47ea670b442974b53935d1edc7fd64eb21e047a839171b60405160405180910390a45b5050565b61146e828260405180602001604052806000815250611d28565b5050565b600061147d8261089a565b905061148b81600084611a24565b611496600083610df6565b6001600360008373ffffffffffffffffffffffffffffffffffffffff1673ffffffffffffffffffffffffffffffffffffffff16815260200190815260200160002060008282546114e69190612d38565b925050819055506002600083815260200190815260200160002060006101000a81549073ffffffffffffffffffffffffffffffffffffffff021916905581600073ffffffffffffffffffffffffffffffffffffffff168273ffffffffffffffffffffffffffffffffffffffff167fddf252ad1be2c89b69c2b068fc378daa952ba7f163c4a11628f55a4df523b3ef60405160405180910390a461158b81600084611a29565b5050565b8173ffffffffffffffffffffffffffffffffffffffff168373ffffffffffffffffffffffffffffffffffffffff1614156115fe576040517f08c379a00000000000000000000000000000000000000000000000000000000081526004016115f590612a23565b60405180910390fd5b80600560008573ffffffffffffffffffffffffffffffffffffffff1673ffffffffffffffffffffffffffffffffffffffff16815260200190815260200160002060008473ffffffffffffffffffffffffffffffffffffffff1673ffffffffffffffffffffffffffffffffffffffff16815260200190815260200160002060006101000a81548160ff0219169083151502179055508173ffffffffffffffffffffffffffffffffffffffff168373ffffffffffffffffffffffffffffffffffffffff167f17307eab39ab6107e8899845ad3d59bd9653f200f220920489ca2b5937696c31836040516116ef919061292b565b60405180910390a3505050565b611707848484610f8d565b61171384848484611d83565b611752576040517f08c379a0000000000000000000000000000000000000000000000000000000008152600401611749906129a3565b60405180910390fd5b50505050565b60606040518060400160405280601681526020017f687474703a2f2f6c6f63616c686f73743a333030302f00000000000000000000815250905090565b606060008214156117dd576040518060400160405280600181526020017f3000000000000000000000000000000000000000000000000000000000000000815250905061193d565b600082905060005b6000821461180f5780806117f890612eb9565b915050600a826118089190612cad565b91506117e5565b60008167ffffffffffffffff811115611851577f4e487b7100000000000000000000000000000000000000000000000000000000600052604160045260246000fd5b6040519080825280601f01601f1916602001820160405280156118835781602001600182028036833780820191505090505b5090505b600085146119365760018261189c9190612d38565b9150600a856118ab9190612f02565b60306118b79190612c57565b60f81b8183815181106118f3577f4e487b7100000000000000000000000000000000000000000000000000000000600052603260045260246000fd5b60200101907effffffffffffffffffffffffffffffffffffffffffffffffffffffffffffff1916908160001a905350600a8561192f9190612cad565b9450611887565b8093505050505b919050565b60007f80ac58cd000000000000000000000000000000000000000000000000000000007bffffffffffffffffffffffffffffffffffffffffffffffffffffffff1916827bffffffffffffffffffffffffffffffffffffffffffffffffffffffff19161480611a0d57507f5b5e139f000000000000000000000000000000000000000000000000000000007bffffffffffffffffffffffffffffffffffffffffffffffffffffffff1916827bffffffffffffffffffffffffffffffffffffffffffffffffffffffff1916145b80611a1d5750611a1c82611f1a565b5b9050919050565b505050565b505050565b606060006002836002611a419190612cde565b611a4b9190612c57565b67ffffffffffffffff811115611a8a577f4e487b7100000000000000000000000000000000000000000000000000000000600052604160045260246000fd5b6040519080825280601f01601f191660200182016040528015611abc5781602001600182028036833780820191505090505b5090507f300000000000000000000000000000000000000000000000000000000000000081600081518110611b1a577f4e487b7100000000000000000000000000000000000000000000000000000000600052603260045260246000fd5b60200101907effffffffffffffffffffffffffffffffffffffffffffffffffffffffffffff1916908160001a9053507f780000000000000000000000000000000000000000000000000000000000000081600181518110611ba4577f4e487b7100000000000000000000000000000000000000000000000000000000600052603260045260246000fd5b60200101907effffffffffffffffffffffffffffffffffffffffffffffffffffffffffffff1916908160001a90535060006001846002611be49190612cde565b611bee9190612c57565b90505b6001811115611cda577f3031323334353637383961626364656600000000000000000000000000000000600f861660108110611c56577f4e487b7100000000000000000000000000000000000000000000000000000000600052603260045260246000fd5b1a60f81b828281518110611c93577f4e487b7100000000000000000000000000000000000000000000000000000000600052603260045260246000fd5b60200101907effffffffffffffffffffffffffffffffffffffffffffffffffffffffffffff1916908160001a905350600485901c945080611cd390612e2c565b9050611bf1565b5060008414611d1e576040517f08c379a0000000000000000000000000000000000000000000000000000000008152600401611d1590612983565b60405180910390fd5b8091505092915050565b611d328383611f84565b611d3f6000848484611d83565b611d7e576040517f08c379a0000000000000000000000000000000000000000000000000000000008152600401611d75906129a3565b60405180910390fd5b505050565b6000611da48473ffffffffffffffffffffffffffffffffffffffff1661215e565b15611f0d578373ffffffffffffffffffffffffffffffffffffffff1663150b7a02611dcd610dee565b8786866040518563ffffffff1660e01b8152600401611def94939291906128df565b602060405180830381600087803b158015611e0957600080fd5b505af1925050508015611e3a57506040513d601f19601f82011682018060405250810190611e37919061249c565b60015b611ebd573d8060008114611e6a576040519150601f19603f3d011682016040523d82523d6000602084013e611e6f565b606091505b50600081511415611eb5576040517f08c379a0000000000000000000000000000000000000000000000000000000008152600401611eac906129a3565b60405180910390fd5b805181602001fd5b63150b7a0260e01b7bffffffffffffffffffffffffffffffffffffffffffffffffffffffff1916817bffffffffffffffffffffffffffffffffffffffffffffffffffffffff191614915050611f12565b600190505b949350505050565b60007f01ffc9a7000000000000000000000000000000000000000000000000000000007bffffffffffffffffffffffffffffffffffffffffffffffffffffffff1916827bffffffffffffffffffffffffffffffffffffffffffffffffffffffff1916149050919050565b600073ffffffffffffffffffffffffffffffffffffffff168273ffffffffffffffffffffffffffffffffffffffff161415611ff4576040517f08c379a0000000000000000000000000000000000000000000000000000000008152600401611feb90612ac3565b60405180910390fd5b611ffd81610d82565b1561203d576040517f08c379a0000000000000000000000000000000000000000000000000000000008152600401612034906129e3565b60405180910390fd5b61204960008383611a24565b6001600360008473ffffffffffffffffffffffffffffffffffffffff1673ffffffffffffffffffffffffffffffffffffffff16815260200190815260200160002060008282546120999190612c57565b92505081905550816002600083815260200190815260200160002060006101000a81548173ffffffffffffffffffffffffffffffffffffffff021916908373ffffffffffffffffffffffffffffffffffffffff160217905550808273ffffffffffffffffffffffffffffffffffffffff16600073ffffffffffffffffffffffffffffffffffffffff167fddf252ad1be2c89b69c2b068fc378daa952ba7f163c4a11628f55a4df523b3ef60405160405180910390a461215a60008383611a29565b5050565b6000808273ffffffffffffffffffffffffffffffffffffffff163b119050919050565b600061219461218f84612be3565b612bbe565b9050828152602081018484840111156121ac57600080fd5b6121b7848285612dea565b509392505050565b6000813590506121ce816134f9565b92915050565b6000813590506121e381613510565b92915050565b6000813590506121f881613527565b92915050565b60008135905061220d8161353e565b92915050565b6000815190506122228161353e565b92915050565b600082601f83011261223957600080fd5b8135612249848260208601612181565b91505092915050565b60008135905061226181613555565b92915050565b60006020828403121561227957600080fd5b6000612287848285016121bf565b91505092915050565b600080604083850312156122a357600080fd5b60006122b1858286016121bf565b92505060206122c2858286016121bf565b9150509250929050565b6000806000606084860312156122e157600080fd5b60006122ef868287016121bf565b9350506020612300868287016121bf565b925050604061231186828701612252565b9150509250925092565b6000806000806080858703121561233157600080fd5b600061233f878288016121bf565b9450506020612350878288016121bf565b935050604061236187828801612252565b925050606085013567ffffffffffffffff81111561237e57600080fd5b61238a87828801612228565b91505092959194509250565b600080604083850312156123a957600080fd5b60006123b7858286016121bf565b92505060206123c8858286016121d4565b9150509250929050565b600080604083850312156123e557600080fd5b60006123f3858286016121bf565b925050602061240485828601612252565b9150509250929050565b60006020828403121561242057600080fd5b600061242e848285016121e9565b91505092915050565b6000806040838503121561244a57600080fd5b6000612458858286016121e9565b9250506020612469858286016121bf565b9150509250929050565b60006020828403121561248557600080fd5b6000612493848285016121fe565b91505092915050565b6000602082840312156124ae57600080fd5b60006124bc84828501612213565b91505092915050565b6000602082840312156124d757600080fd5b60006124e584828501612252565b91505092915050565b6124f781612d6c565b82525050565b61250681612d7e565b82525050565b61251581612d8a565b82525050565b600061252682612c14565b6125308185612c2a565b9350612540818560208601612df9565b61254981612fef565b840191505092915050565b600061255f82612c1f565b6125698185612c3b565b9350612579818560208601612df9565b61258281612fef565b840191505092915050565b600061259882612c1f565b6125a28185612c4c565b93506125b2818560208601612df9565b80840191505092915050565b60006125cb602083612c3b565b91506125d682613000565b602082019050919050565b60006125ee603283612c3b565b91506125f982613029565b604082019050919050565b6000612611602583612c3b565b915061261c82613078565b604082019050919050565b6000612634601c83612c3b565b915061263f826130c7565b602082019050919050565b6000612657602483612c3b565b9150612662826130f0565b604082019050919050565b600061267a601983612c3b565b91506126858261313f565b602082019050919050565b600061269d602c83612c3b565b91506126a882613168565b604082019050919050565b60006126c0603883612c3b565b91506126cb826131b7565b604082019050919050565b60006126e3602a83612c3b565b91506126ee82613206565b604082019050919050565b6000612706602983612c3b565b915061271182613255565b604082019050919050565b6000612729602083612c3b565b9150612734826132a4565b602082019050919050565b600061274c602c83612c3b565b9150612757826132cd565b604082019050919050565b600061276f602f83612c3b565b915061277a8261331c565b604082019050919050565b6000612792602183612c3b565b915061279d8261336b565b604082019050919050565b60006127b5603183612c3b565b91506127c0826133ba565b604082019050919050565b60006127d8601783612c4c565b91506127e382613409565b601782019050919050565b60006127fb603083612c3b565b915061280682613432565b604082019050919050565b600061281e601183612c4c565b915061282982613481565b601182019050919050565b6000612841602f83612c3b565b915061284c826134aa565b604082019050919050565b61286081612de0565b82525050565b6000612872828561258d565b915061287e828461258d565b91508190509392505050565b6000612895826127cb565b91506128a1828561258d565b91506128ac82612811565b91506128b8828461258d565b91508190509392505050565b60006020820190506128d960008301846124ee565b92915050565b60006080820190506128f460008301876124ee565b61290160208301866124ee565b61290e6040830185612857565b8181036060830152612920818461251b565b905095945050505050565b600060208201905061294060008301846124fd565b92915050565b600060208201905061295b600083018461250c565b92915050565b6000602082019050818103600083015261297b8184612554565b905092915050565b6000602082019050818103600083015261299c816125be565b9050919050565b600060208201905081810360008301526129bc816125e1565b9050919050565b600060208201905081810360008301526129dc81612604565b9050919050565b600060208201905081810360008301526129fc81612627565b9050919050565b60006020820190508181036000830152612a1c8161264a565b9050919050565b60006020820190508181036000830152612a3c8161266d565b9050919050565b60006020820190508181036000830152612a5c81612690565b9050919050565b60006020820190508181036000830152612a7c816126b3565b9050919050565b60006020820190508181036000830152612a9c816126d6565b9050919050565b60006020820190508181036000830152612abc816126f9565b9050919050565b60006020820190508181036000830152612adc8161271c565b9050919050565b60006020820190508181036000830152612afc8161273f565b9050919050565b60006020820190508181036000830152612b1c81612762565b9050919050565b60006020820190508181036000830152612b3c81612785565b9050919050565b60006020820190508181036000830152612b5c816127a8565b9050919050565b60006020820190508181036000830152612b7c816127ee565b9050919050565b60006020820190508181036000830152612b9c81612834565b9050919050565b6000602082019050612bb86000830184612857565b92915050565b6000612bc8612bd9565b9050612bd48282612e88565b919050565b6000604051905090565b600067ffffffffffffffff821115612bfe57612bfd612fc0565b5b612c0782612fef565b9050602081019050919050565b600081519050919050565b600081519050919050565b600082825260208201905092915050565b600082825260208201905092915050565b600081905092915050565b6000612c6282612de0565b9150612c6d83612de0565b9250827fffffffffffffffffffffffffffffffffffffffffffffffffffffffffffffffff03821115612ca257612ca1612f33565b5b828201905092915050565b6000612cb882612de0565b9150612cc383612de0565b925082612cd357612cd2612f62565b5b828204905092915050565b6000612ce982612de0565b9150612cf483612de0565b9250817fffffffffffffffffffffffffffffffffffffffffffffffffffffffffffffffff0483118215151615612d2d57612d2c612f33565b5b828202905092915050565b6000612d4382612de0565b9150612d4e83612de0565b925082821015612d6157612d60612f33565b5b828203905092915050565b6000612d7782612dc0565b9050919050565b60008115159050919050565b6000819050919050565b60007fffffffff0000000000000000000000000000000000000000000000000000000082169050919050565b600073ffffffffffffffffffffffffffffffffffffffff82169050919050565b6000819050919050565b82818337600083830152505050565b60005b83811015612e17578082015181840152602081019050612dfc565b83811115612e26576000848401525b50505050565b6000612e3782612de0565b91506000821415612e4b57612e4a612f33565b5b600182039050919050565b60006002820490506001821680612e6e57607f821691505b60208210811415612e8257612e81612f91565b5b50919050565b612e9182612fef565b810181811067ffffffffffffffff82111715612eb057612eaf612fc0565b5b80604052505050565b6000612ec482612de0565b91507fffffffffffffffffffffffffffffffffffffffffffffffffffffffffffffffff821415612ef757612ef6612f33565b5b600182019050919050565b6000612f0d82612de0565b9150612f1883612de0565b925082612f2857612f27612f62565b5b828206905092915050565b7f4e487b7100000000000000000000000000000000000000000000000000000000600052601160045260246000fd5b7f4e487b7100000000000000000000000000000000000000000000000000000000600052601260045260246000fd5b7f4e487b7100000000000000000000000000000000000000000000000000000000600052602260045260246000fd5b7f4e487b7100000000000000000000000000000000000000000000000000000000600052604160045260246000fd5b6000601f19601f8301169050919050565b7f537472696e67733a20686578206c656e67746820696e73756666696369656e74600082015250565b7f4552433732313a207472616e7366657220746f206e6f6e20455243373231526560008201527f63656976657220696d706c656d656e7465720000000000000000000000000000602082015250565b7f4552433732313a207472616e736665722066726f6d20696e636f72726563742060008201527f6f776e6572000000000000000000000000000000000000000000000000000000602082015250565b7f4552433732313a20746f6b656e20616c7265616479206d696e74656400000000600082015250565b7f4552433732313a207472616e7366657220746f20746865207a65726f2061646460008201527f7265737300000000000000000000000000000000000000000000000000000000602082015250565b7f4552433732313a20617070726f766520746f2063616c6c657200000000000000600082015250565b7f4552433732313a206f70657261746f7220717565727920666f72206e6f6e657860008201527f697374656e7420746f6b656e0000000000000000000000000000000000000000602082015250565b7f4552433732313a20617070726f76652063616c6c6572206973206e6f74206f7760008201527f6e6572206e6f7220617070726f76656420666f7220616c6c0000000000000000602082015250565b7f4552433732313a2062616c616e636520717565727920666f7220746865207a6560008201527f726f206164647265737300000000000000000000000000000000000000000000602082015250565b7f4552433732313a206f776e657220717565727920666f72206e6f6e657869737460008201527f656e7420746f6b656e0000000000000000000000000000000000000000000000602082015250565b7f4552433732313a206d696e7420746f20746865207a65726f2061646472657373600082015250565b7f4552433732313a20617070726f76656420717565727920666f72206e6f6e657860008201527f697374656e7420746f6b656e0000000000000000000000000000000000000000602082015250565b7f4552433732314d657461646174613a2055524920717565727920666f72206e6f60008201527f6e6578697374656e7420746f6b656e0000000000000000000000000000000000602082015250565b7f4552433732313a20617070726f76616c20746f2063757272656e74206f776e6560008201527f7200000000000000000000000000000000000000000000000000000000000000602082015250565b7f4552433732313a207472616e736665722063616c6c6572206973206e6f74206f60008201527f776e6572206e6f7220617070726f766564000000000000000000000000000000602082015250565b7f416363657373436f6e74726f6c3a206163636f756e7420000000000000000000600082015250565b7f4552433732314275726e61626c653a2063616c6c6572206973206e6f74206f7760008201527f6e6572206e6f7220617070726f76656400000000000000000000000000000000602082015250565b7f206973206d697373696e6720726f6c6520000000000000000000000000000000600082015250565b7f416363657373436f6e74726f6c3a2063616e206f6e6c792072656e6f756e636560008201527f20726f6c657320666f722073656c660000000000000000000000000000000000602082015250565b61350281612d6c565b811461350d57600080fd5b50565b61351981612d7e565b811461352457600080fd5b50565b61353081612d8a565b811461353b57600080fd5b50565b61354781612d94565b811461355257600080fd5b50565b61355e81612de0565b811461356957600080fd5b5056fea26469706673582212201e4b44e67879476fdea5350246dfcfa77f8e96b4738b47583e15efaf67e271db64736f6c63430008040033",
  "linkReferences": {},
  "deployedLinkReferences": {}
}